{
  "contractName": "ProofOfExistence",
  "abi": [
    {
      "constant": true,
      "inputs": [
        {
          "name": "",
          "type": "address"
        }
      ],
      "name": "count",
      "outputs": [
        {
          "name": "",
          "type": "uint256"
        }
      ],
      "payable": false,
      "stateMutability": "view",
      "type": "function"
    },
    {
      "constant": true,
      "inputs": [
        {
          "name": "",
          "type": "bytes32"
        },
        {
          "name": "",
          "type": "uint256"
        }
      ],
      "name": "tagToHash",
      "outputs": [
        {
          "name": "",
          "type": "bytes32"
        }
      ],
      "payable": false,
      "stateMutability": "view",
      "type": "function"
    },
    {
      "constant": true,
      "inputs": [
        {
          "name": "",
          "type": "uint256"
        }
      ],
      "name": "listOfFiles",
      "outputs": [
        {
          "name": "addr",
          "type": "address"
        },
        {
          "name": "tag",
          "type": "string"
        },
        {
          "name": "ipfsHash",
          "type": "string"
        }
      ],
      "payable": false,
      "stateMutability": "view",
      "type": "function"
    },
    {
      "constant": false,
      "inputs": [
        {
          "name": "_addr",
          "type": "address"
        },
        {
          "name": "_tag",
          "type": "string"
        },
        {
          "name": "_ipfsHash",
          "type": "string"
        }
      ],
      "name": "AddFile",
      "outputs": [],
      "payable": false,
      "stateMutability": "nonpayable",
      "type": "function"
    },
    {
      "constant": true,
      "inputs": [
        {
          "name": "_tag",
          "type": "bytes32"
        }
      ],
      "name": "getHashArrayByTag",
      "outputs": [
        {
          "name": "",
          "type": "bytes32[]"
        }
      ],
      "payable": false,
      "stateMutability": "view",
      "type": "function"
    }
  ],
  "bytecode": "0x608060405234801561001057600080fd5b50610a0f806100206000396000f30060806040526004361061006d576000357c0100000000000000000000000000000000000000000000000000000000900463ffffffff16806305d85eda146100725780634449ba70146100c957806361532e5c1461014f57806363a74b9f146101a65780637c5bbe1a14610275575b600080fd5b34801561007e57600080fd5b506100b3600480360381019080803573ffffffffffffffffffffffffffffffffffffffff1690602001909291905050506103ba565b6040518082815260200191505060405180910390f35b3480156100d557600080fd5b506100f860048036038101908080356000191690602001909291905050506103d2565b6040518080602001828103825283818151815260200191508051906020019060200280838360005b8381101561013b578082015181840152602081019050610120565b505050509050019250505060405180910390f35b34801561015b57600080fd5b50610188600480360381019080803560001916906020019092919080359060200190929190505050610449565b60405180826000191660001916815260200191505060405180910390f35b3480156101b257600080fd5b50610273600480360381019080803573ffffffffffffffffffffffffffffffffffffffff169060200190929190803590602001908201803590602001908080601f0160208091040260200160405190810160405280939291908181526020018383808284378201915050505050509192919290803590602001908201803590602001908080601f0160208091040260200160405190810160405280939291908181526020018383808284378201915050505050509192919290505050610479565b005b34801561028157600080fd5b506102a060048036038101908080359060200190929190505050610735565b604051808473ffffffffffffffffffffffffffffffffffffffff1673ffffffffffffffffffffffffffffffffffffffff1681526020018060200180602001838103835285818151815260200191508051906020019080838360005b838110156103165780820151818401526020810190506102fb565b50505050905090810190601f1680156103435780820380516001836020036101000a031916815260200191505b50838103825284818151815260200191508051906020019080838360005b8381101561037c578082015181840152602081019050610361565b50505050905090810190601f1680156103a95780820380516001836020036101000a031916815260200191505b509550505050505060405180910390f35b60016020528060005260406000206000915090505481565b606060046000836000191660001916815260200190815260200160002080548060200260200160405190810160405280929190818152602001828054801561043d57602002820191906000526020600020905b81546000191681526020019060010190808311610425575b50505050509050919050565b60046020528160005260406000208181548110151561046457fe5b90600052602060002001600091509150505481565b6000600160006060604051908101604052808773ffffffffffffffffffffffffffffffffffffffff168152602001868152602001858152509080600181540180825580915050906001820390600052602060002090600302016000909192909190915060008201518160000160006101000a81548173ffffffffffffffffffffffffffffffffffffffff021916908373ffffffffffffffffffffffffffffffffffffffff160217905550602082015181600101908051906020019061053f9291906108be565b50604082015181600201908051906020019061055c9291906108be565b505050039050816040518082805190602001908083835b6020831015156105985780518252602082019150602081019050602083039250610573565b6001836020036101000a0380198251168184511680821785525050505050509050019150506040518091039020600260003373ffffffffffffffffffffffffffffffffffffffff1673ffffffffffffffffffffffffffffffffffffffff16815260200190815260200160002081600019169055508260036000846040518082805190602001908083835b6020831015156106475780518252602082019150602081019050602083039250610622565b6001836020036101000a038019825116818451168082178552505050505050905001915050604051809103902060001916600019168152602001908152602001600020908051906020019061069d92919061093e565b50600160003373ffffffffffffffffffffffffffffffffffffffff1673ffffffffffffffffffffffffffffffffffffffff168152602001908152602001600020600081548092919060010191905055600160003373ffffffffffffffffffffffffffffffffffffffff1673ffffffffffffffffffffffffffffffffffffffff1681526020019081526020016000208190555050505050565b60008181548110151561074457fe5b90600052602060002090600302016000915090508060000160009054906101000a900473ffffffffffffffffffffffffffffffffffffffff1690806001018054600181600116156101000203166002900480601f0160208091040260200160405190810160405280929190818152602001828054600181600116156101000203166002900480156108165780601f106107eb57610100808354040283529160200191610816565b820191906000526020600020905b8154815290600101906020018083116107f957829003601f168201915b505050505090806002018054600181600116156101000203166002900480601f0160208091040260200160405190810160405280929190818152602001828054600181600116156101000203166002900480156108b45780601f10610889576101008083540402835291602001916108b4565b820191906000526020600020905b81548152906001019060200180831161089757829003601f168201915b5050505050905083565b828054600181600116156101000203166002900490600052602060002090601f016020900481019282601f106108ff57805160ff191683800117855561092d565b8280016001018555821561092d579182015b8281111561092c578251825591602001919060010190610911565b5b50905061093a91906109be565b5090565b828054600181600116156101000203166002900490600052602060002090601f016020900481019282601f1061097f57805160ff19168380011785556109ad565b828001600101855582156109ad579182015b828111156109ac578251825591602001919060010190610991565b5b5090506109ba91906109be565b5090565b6109e091905b808211156109dc5760008160009055506001016109c4565b5090565b905600a165627a7a7230582031de35dfc239536c234b4a7bdb98d6a65855fe15b72e13f6045068e4f7a013250029",
  "source": "pragma solidity ^0.4.23;\n\ncontract ProofOfExistence {\n\nstruct File {\n\taddress addr;\n\tstring tag;\n\tstring ipfsHash;\n}\n\nFile[] public listOfFiles;\n\nmapping (address => uint) public count;\nmapping (address => bytes32) addressToHash;\nmapping (bytes32 => string) hashToTags;\n mapping (bytes32 => bytes32[]) public tagToHash;\n\n\nfunction AddFile(address _addr, string _tag, string _ipfsHash) {\n\nuint id = listOfFiles.push(File({addr: _addr, tag: _tag, ipfsHash: _ipfsHash})) - 1;\n\naddressToHash[msg.sender] = keccak256(_ipfsHash);\n\nhashToTags[keccak256(_ipfsHash)] = _tag;\n\ncount[msg.sender] = count[msg.sender]++;\n}\n\n  ///  getter function to get an array of keccakIPFS of hashs by tag\n function getHashArrayByTag(bytes32 _tag) constant public returns(bytes32[]){\n    return tagToHash[_tag];\n  }\n\n\n}",
  "sourcePath": "/Users/martagonzalez/Desktop/final project react truffle box/contracts/SimpleStorage.sol",
  "compiler": {
    "name": "solc",
    "version": "0.4.24+commit.e67f0147.Emscripten.clang"
  },
  "schemaVersion": "2.0.1",
  "updatedAt": "2018-08-27T03:34:35.509Z"
}